:100000000C942A000C9434000C9434000C943400AA
:100010000C9434000C9434000C9434000C94340090
:100020000C9434000C9434000C9434000C94340080
:100030000C9434000C9434000C9434000C94340070
:100040000C9434000C9434000C9434000C94340060
:100050000C94340011241FBECFE5D4E0DEBFCDBF29
:100060000E9436000C947A000C9400008FEF8ABB3B
:1000700017BA60E051E086B381FB222720F982FBAA
:10008000992790F983FB332730F9482F417080FF7F
:1000900004C0211104C0962F08C02223F9F0911149
:1000A00021C0332319F116C0962F211106C001C0BB
:1000B000952F311104C0862F09C0852F07C0852FC9
:1000C00005C0952F852F02C0952F852F880F892B6E
:1000D0008BBBD1CF4111E8CF962FEDCF9111E8CF57
:1000E000952FE9CF4111EDCF952FDFCF4111ECCF07
:0800F000952FE1CFF894FFCF3A
:00000001FF
