S01700004763634170706C69636174696F6E312E737265635B
S11300000C942A000C9434000C9434000C943400A6
S11300100C9434000C9434000C9434000C9434008C
S11300200C9434000C9434000C9434000C9434007C
S11300300C9434000C9434000C9434000C9434006C
S11300400C9434000C9434000C9434000C9434005C
S11300500C94340011241FBECFE5D4E0DEBFCDBF25
S11300600E9436000C945E000C9400001ABA8FEFC4
S113007087BB81E088BB91E020E8C89B08C0C89991
S1130080FECF813011F0869501C080E888BBC99B02
S113009008C0C999FECF803811F0880F01C081E0F3
S11300A088BBCA9B04C0CA99FECF98BB81E0CB9B96
S11300B0E4CFCB99FECF28BB80E8DFCFF894FFCF05
S9030000FC
